:030000000208C62D
:0C08C600787FE4F6D8FD75810802086414
:0E08B700E4FFFE0FBF00010EEF64054E70F56A
:0108C5002210
:02080000A90746
:10080200E4FBE964027020047E00A803088005C3AB
:1008120033CE33CED8F9FFEDF582EF558270047FE7
:100822000180287F008024C374079BFF74017E002F
:10083200A807088005C333CE33CED8F9FFEDF58281
:10084200EF558270047F0180027F00EF24FFB39294
:10085200901208B7D2911208B7C2910BEB640870DC
:01086200A1F4
:010863002272
:10089100E4FDFCC3ED9FEE6480F8EC648098501594
:1008A100E4FBFA0BBB00010AEB64A04A70F50DBD35
:0508B10000010C80DED7
:0108B600221F
:0D086400C291C290D2927F647E0012089172
:10087100E4F508C37480948150F6C292AD087F02FA
:10088100120800D2927FE87E03120891050880E3E6
:00000001FF
