:03000000020A12DF
:0C0A1200787FE4F6D8FD758114020879A5
:100879001209E37412F508F5097B01E4FD7F011201
:1008890009357B01E4FD7F031209357F0112093126
:100899007F031209317B017D027F011209357B013A
:1008A9007D027F031209357B017D037F0112093522
:1008B9007B017D037F031209357455F50CF50D7421
:0C08C900AAF50EF50FE4FF12080080F9FC
:1009C300E4FDFCC3ED9FEC9E5015E4FBFA0BBB006A
:0F09D300010AEB64A04A70F50DBD00010C80E431
:0109E20022F2
:1009E300C291D292C290C293C294C295C296E4F5C8
:1009F30008F509F50AF50BF50CF50DF50EF50F22C3
:0E0A0300E4FFFE0FBF00010EEF64054E70F51C
:010A110022C2
:0208D500A90771
:1008D700E4FBE964027020047E00A803088005C3D6
:1008E70033CE33CED8F9FFEDF582EF558270047F12
:1008F7000180287F008024C374079BFF74017E005A
:10090700A807088005C333CE33CED8F9FFEDF582AB
:10091700EF558270047F0180027F00EF24FFB392BE
:0909270090D291C2910BBB08A90A
:0109300022A4
:040931007B017D01C8
:100935008F10EB25E02408F8C000E6FA08E6FBED89
:1009450025E025E02510FF74017E00A80708800535
:10095500C333CE33CED8F9FFEA4EFEEB4FD000A617
:040965000608F62268
:100969008F14EB25E02408F8C000E6FA08E6FBED51
:1009790025E025E02514FF74017E00A807088005FD
:10098900C333CE33CED8F9F4FFEEF45AFEEB5FD081
:0609990000A60608F6228C
:10099F00ED25E025E02FFFEB25E02408F8E6FC0825
:1009AF00E6AE04A807088006CEA2E713CE13D8F848
:0409BF005401FF22BE
:020800008F1057
:10080200E4F511F512AF12EF25E02408F808E6FC32
:10081200AF12EF25E02408F8E6FEEEFFAA07C29227
:10082200AD047F021208D5AD027F021208D5E4F5AD
:10083200A0E5117023E51214600F14601114601307
:100842002403701475900C8011759014800C7590AF
:100852002480077590448002D2A1AF107E00120955
:10086200C30512E51270020511C3E5129404E511E5
:0608720064809480408FB9
:01087800225D
:00000001FF
