:03000000020A12DF
:0C0A1200787FE4F6D8FD7581130208D748
:1008D7001209E374AAF508F5097B01E4FD7F01120B
:1008E70009357B01E4FD7F031209357F01120931C8
:1008F7007F031209317B017D027F011209357B01DC
:100907007D027F031209357B017D037F01120935C3
:100917007B017D037F0312093574AAF50CF50DF5EC
:0A0927000EF50F7F0A12080080F998
:1009C300E4FDFCC3ED9FEC9E5015E4FBFA0BBB006A
:0F09D300010AEB64A04A70F50DBD00010C80E431
:0109E20022F2
:1009E300C291D292C290C293C294C295C296E4F5C8
:1009F30008F509F50AF50BF50CF50DF50EF50F22C3
:0E0A0300E4FFFE0FBF00010EEF64054E70F51C
:010A110022C2
:02087300A907D3
:10087500E4FBE964027020047E00A803088005C338
:1008850033CE33CED8F9FFEDF582EF558270047F74
:100895000180287F008024C374079BFF74017E00BC
:1008A500A807088005C333CE33CED8F9FFEDF5820E
:1008B500EF558270047F0180027F00EF24FFB39221
:1008C50090120A03D291120A03C2910BEB640870CD
:0108D500A181
:0108D60022FF
:040931007B017D01C8
:100935008F10EB25E02408F8C000E6FA08E6FBED89
:1009450025E025E02510FF74017E00A80708800535
:10095500C333CE33CED8F9FFEA4EFEEB4FD000A617
:040965000608F62268
:100969008F13EB25E02408F8C000E6FA08E6FBED52
:1009790025E025E02513FF74017E00A807088005FE
:10098900C333CE33CED8F9F4FFEEF45AFEEB5FD081
:0609990000A60608F6228C
:10099F00ED25E025E02FFFEB25E02408F8E6FC0825
:1009AF00E6AE04A807088006CEA2E713CE13D8F848
:0409BF005401FF22BE
:020800008F1057
:10080200E4F511F512E51225E02408F8E6FE08E603
:10081200FCEEFFAA07C292AD047F02120873AD027A
:100822007F02120873D292539007E51245117004A9
:10083200D2938022E512640145117004D29480168D
:10084200E512640245117004D295800AE512640330
:1008520045117002D296AF107E001209C30512E54F
:100862001270020511C39404E511648094804095CE
:010872002263
:00000001FF
