:03000000020A18D9
:0C0A1800787FE4F6D8FD75811302080019
:10080000120A097B01E4FDFF12095BE4F510F51102
:100810007F021209020511E51170020510C39464EC
:10082000E5106480948040E87B01E4FDFF12098FAD
:100830007B027D027F0212095BE4F510F5117F0255
:100840001209020511E51170020510C39464E51048
:100850006480948040E87B027D027F021209C5EF2C
:1008600060087B037D037F0380157B011209577BA2
:10087000021209577B031209577B047D017F011285
:10088000095BE4F510F511C3E5119464E51064808B
:10089000948040030208007F021209020511E5114D
:0608A00070E5051080E187
:1009E900E4FDFCC3ED9FEC9E5015E4FBFA0BBB0044
:0F09F900010AEB64A04A70F50DBD00010C80E40B
:010A080022CB
:0F0A0900C291D292C290C293C294C295C2962259
:0208A600A907A0
:1008A800E4FBE964027020047E00A803088005C305
:1008B80033CE33CED8F9FFEDF582EF558270047F41
:1008C8000180287F008024C374079BFF74017E0089
:1008D800A807088005C333CE33CED8F9FFEDF582DB
:1008E800EF558270047F0180027F00EF24FFB392EE
:0908F80090D291C2910BBB08A93A
:0109010022D3
:040957007D017F019E
:10095B008F12EB25E02408F8C000E6FA08E6FBED61
:10096B0025E025E02512FF74017E00A8070880050D
:10097B00C333CE33CED8F9FFEA4EFEEB4FD000A6F1
:04098B000608F62242
:10098F008F12EB25E02408F8C000E6FA08E6FBED2D
:10099F0025E025E02512FF74017E00A807088005D9
:1009AF00C333CE33CED8F9F4FFEEF45AFEEB5FD05B
:0609BF0000A60608F62266
:1009C500ED25E025E02FFFEB25E02408F8E6FC08FF
:1009D500E6AE04A807088006CEA2E713CE13D8F822
:0409E5005401FF2298
:020902008F1252
:10090400751301E51325E02408F8E6FE08E6FCEE7D
:10091400FFAA07C292AD047F021208A6AD027F02AD
:100924001208A6D2925390E0E51324FE600E1460E0
:100934000F14600C2403700AD2938006D2948002B0
:10094400D295AF127E001209E90513E513D394047E
:0209540040B1B0
:01095600227E
:00000001FF
