:03000000020B3BB5
:0C0B3B00787FE4F6D8FD758119020A35B8
:100A3500120B1B850C0E850D0F850A0C850B0D857C
:100A4500080A85090B1209A4EE3395E0FDFCE4FBC9
:100A5500FA7901F81209F1AE02AF038E088F097F0A
:080A6500647E001208CE80CB74
:100AFB00E4FDFCC3ED9FEC9E5015E4FBFA0BBB0031
:0F0B0B00010AEB64F04A70F50DBD00010C80E4A7
:010B1A0022B8
:100B1B00C291D292C290C293C294C295C296E4F58E
:100B2B0008F509F50AF50BF50CF50DF50EF50F2289
:060B4700E4FF0FBF05FCF6
:010B4D002285
:02094800A907FD
:10094A00E4FBE964027020047E00A803088005C362
:10095A0033CE33CED8F9FFEDF582EF558270047F9E
:10096A000180287F008024C374079BFF74017E00E6
:10097A00A807088005C333CE33CED8F9FFEDF58238
:10098A00EF558270047F0180027F00EF24FFB3924B
:09099A0090D291C2910BBB08A997
:0109A3002231
:100AA3008F18EB25E02408F8C000E6FA08E6FBED12
:100AB30025E025E02518FF74017E00A807088005BE
:100AC300C333CE33CED8F9FFEA4EFEEB4FD000A6A8
:040AD3000608F622F9
:100A6D008F19EB25E02408F8C000E6FA08E6FBED47
:100A7D0025E025E02519FF74017E00A807088005F3
:100A8D00C333CE33CED8F9F4FFEEF45AFEEB5FD07C
:060A9D0000A60608F62287
:100AD700ED25E025E02FFFEB25E02408F8E6FC08EC
:100AE700E6AE04A807088006CEA2E713CE13D8F80F
:040AF7005401FF2285
:0408CE008E148F15E0
:1008D200E5151515AE14700215144E6068E4F51690
:1008E200F517C3E5179404E5166480948050E1E59A
:1008F2001725E02408F8E6FE08E6FCEEFFAA07C288
:1009020092AD047F02120948AD027F02120948E447
:10091200F5A0E5167023E51714600F14601114603A
:10092200132403701475900C8011759014800C754B
:10093200902480077590448002D2A10517E51770B4
:05094200A10516809DD7
:01094700228D
:1009F100C2D5E830E70FB2D5E4C39BFBE49AFAE431
:100A010099F9E498F8EC30E717B2D5120A271208E1
:100A11003CE4C39BFBE49AFAE499F9E498F8800377
:100A210012083C30D50DE4C39FFFE49EFEE49DFD1A
:040A3100E49CFC2223
:1009A400AC10AD11AE12AF137810EC4D4E4F700475
:1009B4007CA57DA5C3EC13FCED13FDEE13FEEF1334
:1009C400FF5010EC64CCFCED644CFDEE644EFEEF85
:1009D40064CEFFD8DF8C108D118E128F13EE547FEE
:0D09E400FE228E108F1174A5F512F513225E
:1008000075F008758200EF2FFFEE33FECD33CDCCAF
:1008100033CCC58233C5829BED9AEC99E582984032
:100820000CF582EE9BFEED9AFDEC99FC0FD5F0D60F
:10083000E4CEFBE4CDFAE4CCF9A88222B800C1B939
:100840000059BA002DEC8BF084CFCECDFCE5F0CB77
:10085000F97818EF2FFFEE33FEED33FDEC33FCEBB0
:1008600033FB10D703994004EB99FB0FD8E5E4F96B
:10087000FA227818EF2FFFEE33FEED33FDEC33FC58
:10088000C933C910D7059BE99A4007EC9BFCE99A4C
:10089000F90FD8E0E4C9FAE4CCFB2275F010EF2F91
:1008A000FFEE33FEED33FDCC33CCC833C810D70791
:1008B0009BEC9AE899400AED9BFDEC9AFCE899F8CC
:0E08C0000FD5F0DAE4CDFBE4CCFAE4C8F9225F
:00000001FF
