:0300000002096F83
:0C096F00787FE4F6D8FD75811502097B45
:08097B001209607F0102085C13
:10094000E4FDFCC3ED9FEC9E5015E4FBFA0BBB00ED
:0F095000010AEB64A04A70F50DBD00010C80E4B4
:01095F002275
:0F096000C291D292C290C293C294C295C2962203
:02080000A90746
:10080200E4FBE964027020047E00A803088005C3AB
:1008120033CE33CED8F9FFEDF582EF558270047FE7
:100822000180287F008024C374079BFF74017E002F
:10083200A807088005C333CE33CED8F9FFEDF58281
:10084200EF558270047F0180027F00EF24FFB39294
:0908520090D291C2910BBB08A9E0
:01085B00227A
:1008E8008F14EB25E02408F8C000E6FA08E6FBEDD3
:1008F80025E025E02514FF74017E00A8070880057F
:10090800C333CE33CED8F9FFEA4EFEEB4FD000A664
:040918000608F622B5
:1008B2008F15EB25E02408F8C000E6FA08E6FBED08
:1008C20025E025E02515FF74017E00A807088005B4
:1008D200C333CE33CED8F9F4FFEEF45AFEEB5FD039
:0608E20000A60608F62244
:10091C00ED25E025E02FFFEB25E02408F8E6FC08A8
:10092C00E6AE04A807088006CEA2E713CE13D8F8CB
:04093C005401FF2241
:02085C008F10FB
:03085E0075110110
:10086100E51125E02408F8E6FE08E6F512EEFF8F13
:1008710013C292AD127F02120800AD137F0212085B
:1008810000D2925390E0E51124FE600E14600F1423
:10089100600C2403700AD2938006D2948002D29510
:0708A100AF107E00120940B8
:0908A8000511E511D3940440B0E0
:0108B1002224
:00000001FF
