:030000000209FCF6
:0C09FC00787FE4F6D8FD7581140208D65F
:1008D6001209DC7412F508F5097B01E4FD7F0312A9
:1008E600092E7F0112092A7F0312092A7B017D0244
:1008F6007F0112092E7B017D027F0312092E7B01E7
:100906007D037F0112092E7B017D037F0312092ED1
:100916007455F50CF50D74AAF50EF50FE4FFFE12ED
:04092600080080F84D
:1009BC00E4FDFCC3ED9FEC9E5015E4FBFA0BBB0071
:0F09CC00010AEB64F04A70F50DBD00010C80E4E8
:0109DB0022F9
:1009DC00C291D292C290C293C294C295C296E4F5CF
:1009EC0008F509F50AF50BF50CF50DF50EF50F22CA
:060A0800E4FF0FBF05FC36
:010A0E0022C5
:02087A00A907CC
:10087C00E4FBE964027020047E00A803088005C331
:10088C0033CE33CED8F9FFEDF582EF558270047F6D
:10089C000180287F008024C374079BFF74017E00B5
:1008AC00A807088005C333CE33CED8F9FFEDF58207
:1008BC00EF558270047F0180027F00EF24FFB3921A
:0908CC0090D291C2910BBB08A966
:0108D5002200
:04092A007B017D01CF
:10092E008F10EB25E02408F8C000E6FA08E6FBED90
:10093E0025E025E02510FF74017E00A8070880053C
:10094E00C333CE33CED8F9FFEA4EFEEB4FD000A61E
:04095E000608F6226F
:100962008F14EB25E02408F8C000E6FA08E6FBED58
:1009720025E025E02514FF74017E00A80708800504
:10098200C333CE33CED8F9F4FFEEF45AFEEB5FD088
:0609920000A60608F62293
:10099800ED25E025E02FFFEB25E02408F8E6FC082C
:1009A800E6AE04A807088006CEA2E713CE13D8F84F
:0409B8005401FF22C5
:040800008E108F11B6
:10080400E5111511AE10700215104E6068E4F51272
:10081400F513C3E5139404E5126480948050E1E574
:100824001325E02408F8E6FE08E6FCEEFFAA07C25A
:1008340092AD047F0212087AAD027F0212087AE4B4
:10084400F5A0E5127023E51314600F146011146011
:10085400132403701475900C8011759014800C751A
:10086400902480077590448002D2A10513E513708B
:05087400A10512809DAA
:01087900225C
:00000001FF
